:020000040000FA
:1000000018F09FE518F09FE518F09FE518F09FE5C0
:1000100018F09FE50000A0E1F0FF1FE518F09FE554
:100020005800000040000000802000004800000050
:100030004C000000000000005000000054000000D0
:10004000FEFFFFEAFEFFFFEAFEFFFFEAFEFFFFEA18
:10005000FEFFFFEAFEFFFFEA94009FE5AA10A0E37F
:100060005520A0E32430A0E3043080E50130A0E374
:10007000003080E50C1080E50C2080E5083090E52C
:10008000013B13E2FCFFFF0A0330A0E3003080E5F0
:100090000C1080E50C2080E558009FE50410A0E3DB
:1000A000041080E50210A0E3001080E548009FE501
:1000B000DBF021E300D0A0E1080040E2D7F021E32B
:1000C00000D0A0E1080040E2D1F021E300D0A0E19F
:1000D000080040E2D2F021E300D0A0E1030C40E2AE
:1000E000D3F021E300D0A0E1030C40E20C009FE537
:1000F00010FF2FE180C01FE000C01FE0C83C00409F
:1001000004010000000000EB2E0000EB2C008FE249
:10011000000C90E800A08AE000B08BE001704AE299
:100120000B005AE10000001A260000EB0F00BAE8AD
:1001300018E04FE2010013E303F0471013FF2FE133
:10014000EC2000000C210000102052E27800B028C2
:100150007800A128FBFFFF8A822EB0E13000B02892
:100160003000A12800409045004081451EFF2FE14E
:100170000030B0E30040B0E30050B0E30060B0E313
:10018000102052E27800A128FCFFFF8A822EB0E105
:100190003000A128003081451EFF2FE101C08FE211
:1001A0001CFF2FE11FB5059886460FBC009C02B0CE
:1001B0007047000001C08FE21CFF2FE130B475468C
:1001C000AE4630BC704700006D0700EB0210A0E1A6
:1001D000F1FFFFEB1CC09FE50FC08CE001001CE3AA
:1001E0000DE08F120FE0A0011CFF2FE101C08FE294
:1001F0001CFF2FE101F0F6FEFB0200007847C0462D
:1002000003002DE9EAFFFFEB0300BDE87C0700EBEC
:100210000C009FE50C109FE504209FE508309FE54A
:100220001EFF2FE1A8360040B0390040A83600403C
:1002300001002DE900204DE90000A0E104D04DE2CD
:100240000100BDE8004020E900E0A0E10100BDE8B8
:10025000FF7F4EE90000A0E13CE04EE200004FE1EC
:1002600001002EE94C009FE5000090E501002EE919
:1002700044009FE5001090E500E081E53C009FE52B
:100280000FE0A0E110FF2FE12C009FE5000090E5BA
:1002900000E090E51C009FE50200BEE8001080E54C
:1002A0000100BEE800F06FE1FF7FDEE80000A0E1A2
:1002B0003CE09EE504F05EE2B000004074000040C7
:1002C0007506000000205BE041004118514A515C76
:1002D000002902D0012950D127E0410041184D4AA0
:1002E0008918897800290CD14B4989684200821805
:1002F000484BD218537801229A409143464A916064
:1003000012E041004118434A8918897801290BD12C
:1003100041498968420082183E4BD2185378012225
:100320009A4011433C4A916028E041004118394A03
:100330008918897800290CD13749896942008218C7
:10034000344BD218537801229A409143324A91613A
:1003500012E0410041182F4A8918897801290BD1F0
:100360002D498969420082182A4BD21853780122FC
:100370009A401143284A916100E0C046C046401CA3
:100380002649098888429FDB70470200002A02D074
:10039000012A0CD105E0204B1B68CB40D807C00FC9
:1003A00005E01D4B1B69CB40D807C00FC046C046B7
:1003B000704710B4002802D0012827D113E0002A8A
:1003C00007D1154BDB6801248C402343124CE360BA
:1003D00008E0012A06D1104B5B6801248C402343BE
:1003E0000D4C636012E0002A07D10B4BDB6901243E
:1003F0008C402343084CE36108E0012A06D1064BF8
:100400005B6901248C402343034C6361C04610BCEC
:100410007047000000000040008002E05A000040E9
:10042000C04610210020FFF7B0FF444908700800C3
:10043000007801280AD142480078002806D101211D
:100440004048006800F07AF93F4908603B4800786E
:100450003B490870642000F095FDE2E782B0C04699
:10046000002003000122110000903648006800F0CF
:1004700021FA3549086008000078C007C00F00283D
:10048000EED011210020FFF780FF012805D10022C6
:1004900011211000FFF78DFFE2E70122112100205A
:1004A000FFF787FFDCE77D20C0002849C86008000F
:1004B00040680121084325494860704710B5E12094
:1004C000400200F05BF8FFF7FDFEFFF7ECFF0120B4
:1004D0001F49087010BC08BC184782B0FFF7EEFF38
:1004E00000F01CF91749086008000068002813D0C4
:1004F0001848032100235A220091019016A119489F
:1005000000F03DFB1848012100235A220091019080
:1005100016A1194800F033FB00F00CFFC046FEE7BF
:100520000A484068022108430849486008004068BA
:100530000221884305494860704700006C00004074
:100540006D0000406400004068000040008000E052
:1005500000C11FE060000040627574746F6E20720D
:1005600065616400210400005C0000406C6564204B
:10057000746F67676C6500005D04000070B505006E
:100580005A480068012109040843584908600800D6
:100590000068012189040843544908602E01310094
:1005A000534801F03BFD04005248007B8021084382
:1005B000504908730C70240A0C710720087203203C
:1005C00008734814C068802188434B49C8600800FC
:1005D0000069802108434849086148484849486003
:1005E000272048494860434800790321084341498E
:1005F000087170BC08BC1847010043480078012806
:1006000009D10020404A10704048007800060016CA
:100610000870012070470020FCE7364A10707047D0
:1006200070B505000C003A480078002820D1002D54
:100630001ED038490C7036490C70002303E0E85C8A
:100640003549C8545B1CA342F9DB31490A78097863
:10065000491E2F4E31702F490978891A2E4A515C54
:1006600009060816FFF7D9FF012070BC08BC18471F
:100670000020FAE710B41F4A107A2EE00207120F8A
:10068000022A0BD0042A1CD0062A02D00C2A20D120
:1006900016E0184A127D110609161BE01C4A127852
:1006A000002A0CDD1A4A13781278521E184C227058
:1006B000184A1278D21A184B9A5C0E4B1A7009E03D
:1006C000C0460C4A1278114B1A7001220E4B1A7058
:1006D00000E0C046C046074A107AC207D20F002A7F
:1006E000CCD00022044B1A6310BC704700C002E05B
:1006F00000879303000001E000F0FFFF30020000DC
:1007000000F1FFFF00F2FFFF6F0000406E000040AD
:100710007100004070000040CC00004010B518206F
:1007200001F0E7FA0400002C04D000202060201D16
:1007300001F0D4F9200010BC08BC1847F3B587B00D
:1007400006000020039034000190201D04900498BE
:100750000830059000F0E0FB0498C768206808990D
:100760000843206031E0786806903D6800200190E1
:10077000280E000602902D022D0A012189060298FA
:100780000840002806D120682840002808D0012011
:10079000019005E020682840A84201D10120019085
:1007A0000198002810D0012109060298084000286D
:1007B00002D0039828430390012252062068104378
:1007C0000100380000F069FE069F05988742CAD1F3
:1007D000216803988143216000F0DFFA206809B0A6
:1007E000F0BC08BC1847FFB583B014001F00039D80
:1007F0000020009000F090FB2868029003A803C836
:10080000FFF79CFF0499029808432040A04208D1BA
:1008100004990298084306002868A043286000272E
:100820000FE0002F0AD0200005221206104301001D
:100830003A00281D00F0E5FD002602E02E680120A8
:10084000009000F0AAFA0190002F1CD00198002817
:1008500001D101F0BFFC00F076FF06000120400648
:10086000304000280DD101F0EDF92E683000204015
:10087000A04202D12868A043286001F0EEF90120CF
:1008800000903602360A300007B0F0BC08BC1847AA
:1008900010B403000020002A05D11C000C40002CDD
:1008A00006D0012004E01C000C408C4200D1012045
:1008B00010BC7047FFB585B00E001700059C0020E6
:1008C0000490019000F028FB206800903100089A05
:1008D0000098FFF7DDFF03900398002808D0009DE3
:1008E00000200E90002F21D02068B04320601DE032
:1008F0000E98002803D1009D0120019016E0002FE2
:1009000004D001210906049808430490089800289F
:1009100004D00121890604980843049004983043C8
:100920000100201D0E9A00F06CFD002500F035FA44
:1009300002900E98002821D00298002801D101F0E1
:1009400049FC00F000FF0500012040062840002877
:1009500012D101F077F9256831002800089AFFF7D5
:1009600097FF002804D0002F02D02068B0432060F9
:100970000120019001F071F92D022D0A280009B023
:10098000F0BC08BC1847F8B504000E00250001F0C3
:1009900059F92F682868B043286001F05EF93800E3
:1009A000F8BC08BC184710B401000A000023106806
:1009B00010BC704770B5040025002E1D00F0ACFA85
:1009C00004E001214906F06800F067FD3068002866
:1009D000F7D1280001F0E2F900F0DFF970BC08BCA3
:1009E000184770B504000D0029002000FFF7A6FE8F
:1009F00070BC08BC184770B504000D002900200029
:100A0000FFF7C1FF70BC08BC1847000010B50024F8
:100A100006E014216143FE4A881801F05FF8641C67
:100A2000042CF6D3FB4801F059F8FB4801F056F8C6
:100A3000FA4801F053F8FA4801F050F8F94801F08B
:100A40004DF8F448F8490860F348F849086010BCCC
:100A500008BC184710B5040001F0F4F8F448006829
:100A6000401CF3490860F3480068002808D1F148A9
:100A700004600800006801280ED1FFF7C7FF0BE0F3
:100A8000ED480068002807D1EA480068C06AE16ABA
:100A9000884201D8E7480460E8480068401CE749FC
:100AA0000860E749E06A0968884202D9E449E06AD7
:100AB00008601422E16A5143D54A8818211D01F0CB
:100AC0001DF801F0CAF8DC480068002807D0D948B2
:100AD0000068C06AE16A884201D201F07BFB10BC69
:100AE00008BC1847FFB581B00E000A9F0C9C216B13
:100AF0000398401E8000081800900098C008C000AD
:100B00000090002E11D0002508E0715D20003430E7
:100B10004155705D002800D102E06D1C0F2DF4D30B
:100B2000C04600214220015502E000213420015539
:100B3000042F00D30327E76267640020A064201D10
:100B400000F0D9FF2000183000F0D5FF2461042008
:100B5000C01BA06164620020E064002150200155A8
:100B6000049A684603C801F005F820600B98002835
:100B700001D00B98046005B0F0BC08BC1847FFB565
:100B800085B01700B80001F0B4F80600002E0BD0B5
:100B9000542001F0AEF80400002C01D0266304E0DC
:100BA000300001F0FBF800E00024002C10D00022FF
:100BB0000EA803C86B4613C303923A00089B05A80E
:100BC00003C8FFF78FFF2000FFF744FF012501E076
:100BD0000025ED43280009B0F0BC08BC1847924935
:100BE00009680968002901D1012100E000210029DC
:100BF00004D00021C943934A116006E08A4909687C
:100C0000C968C8688F4A41681160704710B5040010
:100C1000206B01F0C3F8200001F0C0F810BC08BC44
:100C2000184770B5050001F00DF8002D02D181487C
:100C3000006800E028000400201D00F087FFA06A83
:100C4000002803D02000183000F080FF7B480068A7
:100C5000401C7A49086077480068844209D1211D08
:100C60006F4800F04BFF78480068401C76490860E8
:100C700009E06F480068401E6D4908602000FFF7DA
:100C8000C5FFFFF7ACFF00F0E8FF6B4800680028E5
:100C900005D068480068844201D101F09BFA70BC1D
:100CA00008BC1847F8B50020009068480068002884
:100CB0006AD167480068451C65480560002D0FD162
:100CC00059480768594800685749086057480760FD
:100CD00060480068401C5F490860FFF780FFC0461D
:100CE0005848006885423DD3C0464F4800680068B8
:100CF000002801D1012000E00020002804D00020BD
:100D0000C043504908602CE047480068C068C46888
:100D10006668B54202D24B48066022E0201D00F012
:100D200015FFA06A002803D02000183000F00EFF45
:100D30004349E06A0968884202D94149E06A08608B
:100D40001422E16A5143324A8818211D00F0D6FE70
:100D50003849E06A0968C96A8842C6D30120009010
:100D6000C3E7C04633480068C06A14214843284995
:100D70000858012801D90120009037480068002850
:100D800001D00120009004E034480068401C334941
:100D900008600098F8BC08BC184770B5002400260D
:100DA00000F050FF29480068401E284908600800EC
:100DB0000068002876D11E480068002872D022E022
:100DC0001648C068C4682000183000F0BFFE201D1F
:100DD00000F0BCFE1A49E06A0968884202D9184945
:100DE000E06A08601422E16A5143094A8818211D0B
:100DF00000F084FE0F49E06A0968C96A884202D39C
:100E00000120154908600548006800282AD127E01C
:100E100094010040E4010040F80100400C02004051
:100E20002002004034020040780000407C00004076
:100E3000840000407400004090000040A00000408A
:100E40008C000040A400004080000040AC00004046
:100E5000880000409C000040980000409400004042
:100E6000012000E000200028AAD0002C01D0FFF7CC
:100E7000B6FEFE480568002D0DD0C046FFF712FFF4
:100E8000002802D00120FA4908606D1E002DF5D11E
:100E90000020F6490860F6480068002802D00126C4
:100EA00001F098F900F0D9FE300070BC08BC18477A
:100EB000F8B505000E00EF480768EF480068001D10
:100EC00000F044FE681C002808D1002E06D0EA4835
:100ED0000168091DE94800F011FE1AE07C19E64896
:100EE00000684460BC4207D2E3480168091DE44839
:100EF000006800F00FFE0CE0DF480168091DE148C2
:100F0000006800F007FEE0480068844201D2DE4835
:100F10000460F8BC08BC1847DC480068401CDB498A
:100F200008607047F3B581B0040000200090FFF71F
:100F3000F3FFD0480668216802980D182068B04277
:100F400007D92068A8420BD9B54209D901200090E1
:100F500006E02068A84201D8B54201D901200090DE
:100F600025600098002803D0A81B0021FFF7A0FFF0
:100F7000FFF713FF0700002F01D101F02BF9FEBC92
:100F800008BC184770B504000025002C08D0FFF7F6
:100F9000C3FF00212000FFF78BFFFFF7FEFE0500D7
:100FA000002D01D101F016F970BC08BC184770B5CE
:100FB000040000F047FE002C02D1AF48006800E0BA
:100FC00020000600F56A00F048FE280070BC08BC4E
:100FD000184710B401000023002902D1A64C246850
:100FE00000E00C002200D06A10BC7047FEB507007C
:100FF0000D0000200090042D00D3032500F022FEF8
:10100000002F02D19C48006800E038000400666CA4
:10101000AE4249D0B5420BD99748006884420DD002
:1010200095480068C06AA84208D80120009005E0F1
:1010300091480068844201D101200090E06A01904B
:10104000E16A606C884200D1E5626564A069C00F06
:10105000C007002802D10420401BA061616914224E
:10106000019850438A4A8018814201D1012000E052
:101070000020002812D0201D00F068FD8549E06A9C
:101080000968884202D98349E06A08601422E16A4B
:1010900051437F4A8818211D00F030FD0098002838
:1010A00001D001F097F8C04600F0D7FDFEBC08BCA7
:1010B000184776480068002803D001206C49086072
:1010C00027E000206A4908607248016800E0491E74
:1010D000142048436E4A1058002801D1012000E036
:1010E00000200028F3D114224A43694BD0184268EB
:1010F00052684260020008324368934202D142685B
:10110000526842604268D2685B4B1A606148016075
:10111000C046704770B5050000F094FD002D02D167
:101120005548006800E028000400201D00F00EFD76
:10113000A06A002803D02000183000F007FD211D10
:101140004E4800F0DBFC5020005D012802D1002158
:101150005020015500F081FD4F480068002805D05F
:1011600000F070FDFFF73BFD00F077FD424800689E
:10117000844212D148480068002802D001F02AF8C1
:101180000BE03E48006845490968884203D10020C9
:101190003949086001E0FFF78CFF70BC08BC1847B4
:1011A00010B4010000200A00344C5369A34201D15D
:1011B000012300E00023002B11D0394C936AA34295
:1011C00001D1012300E00023002B08D1936A002BFA
:1011D00001D1012300E00023002B00D0012010BC2E
:1011E000704770B505002C0023480068844225D064
:1011F000002C23D000F026FD2000FFF7D1FF0028AF
:101200001AD0201D00F0A2FC2249E06A0968884239
:1012100002D92049E06A08601422E16A51431C4A5D
:101220008818211D00F06AFC1349E06A0968C96A40
:10123000884201D300F0CEFF00F00FFD70BC08BC67
:101240001847F8B5050000262C0000272000FFF7FE
:10125000A7FF002840D00D480068002837D1064974
:10126000E06A0968C96A88421DD31BE09400004007
:1012700098000040880000407400004034020040A4
:101280007C00004078000040A4000040AC0000401A
:10129000940100408C000040900000408400004019
:1012A0000C0200400126201D00F050FCF949E06AC4
:1012B0000968884202D9F749E06A08601422E16AA5
:1012C0005143F54A8818211D00F018FC04E0210064
:1012D0001831F24800F012FC3000F8BC08BC184786
:1012E00010B516E000F0AEFCED48C068C468201DE3
:1012F00000F02CFCEB480068401EEA490860EA4810
:101300000068401EE849086000F0A7FC2000FFF7D5
:101310007DFCE54800680028E4D110BC08BC1847F3
:10132000C046FFF7DDFFDC4800680128F9D900F06E
:1013300051FFF6E71CB5DD4800210B005A22009151
:101340000190DBA1DC48FFF71AFC0400012C0CD152
:1013500000F044FFA01ED94908600120D849086068
:101360000020D849086000F063FC1CBC08BC18478A
:1013700010B500F033FF0020D149086000F061FC97
:1013800010BC08BC184710B500F05CFCCD480468E0
:1013900000F063FC200010BC08BC18470021C94ABB
:1013A00010687047BF48006870470100002902D1EB
:1013B000C548006800E008000200100034307047A3
:1013C00070B504000025FFF7A7FDC04800680019AC
:1013D000BE490860FFF7E1FC0500280070BC08BCAE
:1013E000184770B505000C00B7480168183128008F
:1013F00000F090FB01212000FFF75AFD70BC08BCF3
:10140000184770B506000C0015000120C0072043E6
:10141000AD4909688861AC4801681831300000F0B6
:101420006DFB01212800FFF743FD70BC08BC184785
:1014300070B50600F068C4682000183000F086FB24
:10144000A3480068002813D1201D00F07FFB9149BC
:10145000E06A0968884202D98E49E06A086014226D
:10146000E16A51438C4A8818211D00F047FB04E0D3
:1014700021001831894800F041FB9349E06A09686E
:10148000C96A884204D9012501209249086000E018
:101490000025280070BC08BC184770B505000E0078
:1014A0000120C00730432860EC68280000F04EFBA4
:1014B000201D00F04BFB7749E06A0968884202D999
:1014C0007449E06A08601422E16A5143724A88183C
:1014D000211D00F013FB7C49E06A0968C96A884253
:1014E00002D901207B49086070BC08BC184710B5C0
:1014F000040000F0A7FB784800682060714800688D
:10150000606000F0AAFB10BC08BC1847724909686B
:1015100001606C4909684160704770B506000C00B5
:1015200000F090FB674802687068131A2068401C3E
:10153000002801D1002517E0674930680968884212
:1015400004D07068904201D801250DE020689842CF
:1015500007D92068C01A20603000FFF7D7FF0025A8
:1015600002E000202060012500F077FB280070BC1D
:1015700008BC18470120574908607047524908685D
:10158000704770B505002C000026002D42D04E4952
:10159000E06A0968C96A884235D2A069C00FC007ED
:1015A000002805D148480068C06A0421081AA061D3
:1015B0001422E06A5043384A80186169814201D19F
:1015C000012000E00020002817D0201D00F0BEFA06
:1015D0003D480068C06AE0622E49E06A09688842B6
:1015E00002D92C49E06A08601422E16A51432A4A70
:1015F0008818211D00F082FA03E033480068C06AB1
:10160000E062012606E03049606C0968C96A8842D8
:1016100000D20126300070BC08BC184770B5050028
:101620002C000026002D23D0A06C401EA064616C0D
:10163000E06A88421CD0A06C002819D1201D00F05F
:1016400085FA606CE0620421E06A081AA061114921
:10165000E06A0968884202D90E49E06A08601422EB
:10166000E16A51430C4A8818211D00F047FA01260F
:10167000300070BC08BC1847FEB506000F003400EF
:1016800001200090002E5BD0606CB84226D23D0055
:1016900025E000008C000040940100400C02004056
:1016A000200200408400004080000040A80000406C
:1016B00049444C450000000021130000A4000040F4
:1016C00090000040880000407400004094000040FA
:1016D000AC000040980000409C000040656CE06A4F
:1016E000A8422DD0A06C01282AD1E06A0190E562C1
:1016F000A069C00FC007002802D10420401BA061D0
:101700006169142201985043EE4A8018814201D148
:10171000012000E00020002812D0201D00F016FA61
:10172000E949E06A0968884202D9E749E06A086045
:101730001422E16A5143E34A8818211D00F0DEF9C2
:10174000FEBC08BC1847E14909688869DF49096897
:10175000C96A0422511ADD4A126891617047DB4858
:101760000068002806D0D949096808004830896C0B
:10177000491C0160D5480068704770B506000D002F
:1017800000F060FAD1480068C06C00280BD101213C
:10179000CE48006840300174002D04D02800FFF7C7
:1017A00087FB00F017FD00F058FA00F04BFAC7482D
:1017B0000068C46C002C0AD0002E04D00020C3495D
:1017C0000968C86403E0601EC0490968C864002154
:1017D000BE4800684030017400F03FFA200070BC41
:1017E00008BC1847FFB581B0070014001D0000F0C9
:1017F00029FAB64800684030007C022812D0B3496C
:10180000096808004C30C96CB94301600121AF4838
:10181000006840300174002D04D02800FFF748FB19
:1018200000F0D8FC00F019FA00F00CFA002C03D0FC
:10183000A6480068C06C2060A44800684030007C66
:10184000022801D0002608E0A049096808004C30B1
:10185000CA6C02998A430260012600219B480068F5
:101860004030017400F0F9F9300005B0F0BC08BC5C
:101870001847FFB583B00D0016001F00012002902D
:10188000039C00F0DFF9002F01D0E06C386050209D
:10189000005D0190022150200155330000F0B4FC9E
:1018A000051604080C0E1700E06C2843E0640FE0F6
:1018B000E06C401CE0640BE0E56409E0019802285C
:1018C00001D0E56401E00020029001E000E0C046A4
:1018D000C046019801281AD1201D00F037F97A4935
:1018E000E06A0968884202D97749E06A08601422F0
:1018F000E16A5143734A8818211D00F0FFF87349CB
:10190000E06A0968C96A884201D900F063FC00F006
:10191000A4F9029807B0F0BC08BC1847FFB583B023
:101920000D0016001F0001200190039C0020009074
:10193000002F01D0E06C38605020005D0290022141
:1019400050200155330000F05FFC051604080C0E12
:101950001700E06C2843E0640FE0E06C401CE0649A
:101960000BE0E56409E00298022801D0E56401E09B
:101970000020019001E000E0C046C0460298012826
:101980002BD153480068002813D1201D00F0DEF849
:101990004D49E06A0968884202D94B49E06A08600B
:1019A0001422E16A5143474A8818211D00F0A6F825
:1019B00004E021001831474800F0A0F84349E06AEC
:1019C0000968C96A884208D90C98002802D0012108
:1019D0000C980160012040490860019807B0F0BCF4
:1019E00008BC1847F8B505000E002C000020009038
:1019F0005020075D02210155E06C401CE064012F7E
:101A000029D133480068002813D1201D00F09EF82A
:101A10002D49E06A0968884202D92B49E06A0860CA
:101A20001422E16A5143274A8818211D00F066F804
:101A300004E021001831274800F060F82349E06AEB
:101A40000968C96A884206D9002E01D00120306099
:101A5000012021490860F8BC08BC184770B5050092
:101A6000002D02D11948006800E02800060000F0AF
:101A7000E9F85020805D022804D1002150208155D2
:101A8000012400E0002400F0E8F8200070BC08BC4D
:101A90001847F8B504000D00002C02D10B4800686F
:101AA00000E02000060000F0CDF808480068C76C90
:101AB000F06CA843F06400F0D0F83800F8BC08BC23
:101AC00018470000940100408C0000407400004062
:101AD000AC0000400C0200409800004001000831BA
:101AE00041600021C943816001000831C16001618A
:101AF00000210160704700210161704742684A601F
:101B000093688B60936859609160086103685B1CFF
:101B10000360704710B402000B685C1C002C01D1FC
:101B2000106907E01000083000E04068446824684D
:101B30009C42FAD944684C604C68A160886041605E
:101B40000A611468641C146010BC704701000A69C3
:101B50004B6888689860081D09C8586050688842BA
:101B600001D188685060002008611068401E106034
:101B70001068704730B40300001F0C1D0460001F84
:101B80003F4C0460001F0360001F3E4C0460001FB8
:101B90003D4C0460001F3D4C0460001F3C4C046041
:101BA000001F3C4C0460001F3B4C0460001F3B4C7A
:101BB0000460001F3A4C0460001F3A4C0460001F90
:101BC000394C0460001F394C0460001F641004602D
:101BD000001F0260001F1F240460CC07E40F002CCC
:101BE00003D0202504682C430460001F00240460F7
:101BF00030BC704700212E4AD1602E481100886108
:101C0000032151615114C968102291432A4AD160BD
:101C10001100096910221143274A11612749284AF6
:101C200011602421274A11600121214A5160704727
:101C300010B5FFF7DFFF00F005FA002010BC08BC6C
:101C40001847704710B500F0C9FA1F480068401CDB
:101C50001D49086010BC08BC184710B51A48006838
:101C600000280AD018480068401E1749086008007C
:101C70000068002801D100F0BDFA10BC08BC18476C
:101C8000AAAAAAAA121212121111111110101010E0
:101C900009090909080808080707070706060606CC
:101CA00005050505040404040303030302020202FC
:101CB000004000E060EA000000F0FFFF0C2100009F
:101CC00000F1FFFF00F2FFFFB0000040454AD008DE
:101CD000C000454A10600022434B5A60434A444BBF
:101CE0005A6000221A600100404A4A601A000A60E5
:101CF0007047F8B5040000200090FFF70DF93D484B
:101D00000068002804D1FFF7E1FF0120394908608D
:101D1000002C09D008346007400F002804D0600769
:101D2000400F0821081A0419002C31D02F48844292
:101D30002ED22D4F3800056801E02F002D6868680D
:101D4000A04202D228680028F7D1294885421FD036
:101D5000386808300090286838606868001B1028D0
:101D600010D92E196868001B70606C6071681E487D
:101D700000E00068026852688A42FAD30268326062
:101D80000660C0461C4968680968081A1A49086054
:101D9000FFF703F80098F8BC08BC184770B50600B8
:101DA0003500002E16D0083D2C00FFF7B5F861680D
:101DB0000D4800E00068026852688A42FAD302685F
:101DC000226004600C496068096840180A4908608C
:101DD000FEF7E3FF70BC08BC18470748006870476F
:101DE0007047000050020040B4000040F83300008B
:101DF000BC000040C8000040C4000040013090E139
:101E00002100004A0020B0E3A03071E01A00003A3F
:101E1000203271E00F00003A203471E00100003AF6
:101E200000C0A0E3200000EAA03371E0810340205D
:101E30000220B2E0203371E0010340200220B2E032
:101E4000A03271E0810240200220B2E0203271E035
:101E5000010240200220B2E0A03171E08101402067
:101E60000220B2E0203171E0010140200220B2E006
:101E7000A03071E0810040200220B2E0011050E06B
:101E80000010A0310200A2E01EFF2FE1022111E2AA
:101E90000010614240C032E000006022203271E058
:101EA0001D00003A203471E00F00003A0113A0E158
:101EB000203471E03F2382E30B00003A0113A0E1DC
:101EC000203471E03F2682E30700003A0113A0E1CD
:101ED000203471E03F2982E30113A0213F2C8223AB
:101EE000003071E21D00002A2113A021A03371E00F
:101EF000810340200220B2E0203371E00103402042
:101F00000220B2E0A03271E0810240200220B2E063
:101F1000203271E0010240200220B2E0A03171E0E5
:101F2000810140200220B2E0203171E00101402017
:101F30000220B2E0EBFFFF2AA03071E081004020D8
:101F40000220B2E0011050E00010A0310200A2E037
:101F5000CCCFB0E100006042001061221EFF2FE1F3
:101F6000CCCFB0E10000604201402DE90000B0E3B9
:101F70000000A0E10240BDE81EFF2FE1704770475E
:101F8000704700000E50A0E11A0000EB05E0A0E150
:101F90000050B0E10D10A0E10A30A0E10700C0E35D
:101FA00000D0A0E160D08DE220402DE997F8FFEB52
:101FB0002040BDE80060A0E30070A0E30080A0E343
:101FC00000B0A0E30710C1E305C0A0E1C009ACE880
:101FD000C009ACE8C009ACE8C009ACE801D0A0E198
:101FE0001EFF2FE110B50400C046C0462000FEF7DA
:101FF00005F910BC08BC184700009FE51EFF2FE143
:102000004836004001C08FE21CFF2FE10149182033
:10201000ABDFFEE7260002001EFF2FE17847C04637
:102020000020B0E3203171E090FFFF3AA03271E070
:1020300085FFFF3A203471E07AFFFF3A00C0A0E349
:1020400099FFFFEA7847C0466C019FE5000090E5E4
:1020500000E090E564019FE50200BEE8001080E525
:102060000100BEE800F06FE1FF7FDEE80000A0E1C4
:102070003CE09EE504F05EE2000000EF1EFF2FE171
:1020800004E08EE201002DE900204DE90000A0E10E
:1020900004D04DE20100BDE8004020E900E0A0E1ED
:1020A0000100BDE8FF7F4EE90000A0E13CE04EE208
:1020B00000004FE101002EE900019FE5000090E5DE
:1020C00001002EE9F0009FE5001090E500E081E5B9
:1020D000EC009FE50FE0A0E110FF2FE1D8009FE5A5
:1020E000000090E500E090E5D0009FE50200BEE82A
:1020F000001080E50100BEE800F06FE1FF7FDEE840
:102100000000A0E13CE09EE504F05EE201002DE964
:1021100000204DE90000A0E104D04DE20100BDE83F
:10212000004020E900E0A0E10100BDE8FF7F4EE9AA
:102130000000A0E13CE04EE200004FE101002EE98A
:1021400078009FE5000090E501002EE968009FE51A
:10215000001090E500E081E568009FE50FE0A0E158
:1021600010FF2FE1000050E30200000A50009FE53D
:102170000FE0A0E110FF2FE10100A0E348109FE570
:10218000000081E544009FE5000080E528009FE510
:10219000000090E500E090E520009FE50200BEE829
:1021A000001080E50100BEE800F06FE1FF7FDEE88F
:1021B0000000A0E13CE09EE504F05EE27400004017
:1021C000B0000040B3100000A50C0000004000E08B
:1021D00030F0FFFF7847C046A6FFFFEA7847C046C9
:1021E00000000FE1801080E301F021E1800000E2B7
:1021F0001EFF2FE17847C04600000FE18000C0E3DA
:1022000000F021E11EFF2FE17847C04601C05EE5E6
:102210000C0053E10100003A0C30DEE7000000EA58
:102220000330DEE783C08EE01CFF2FE14C2200006C
:1022300000000040CC00000048010000182300000E
:10224000CC000040FC3B00007001000000100000CA
:102250001101001200001301001401001501001605
:1022600001001701001801001901001A01001B01EB
:10227000001D01001E01001F0101100101110101DB
:1022800012010113010114010115010116010117C9
:1022900001011801011901011A01011B01011D01B0
:1022A000011E01011F011E000000000000000000CF
:1022B000000000000000000001010000000000001C
:1022C000000000000000000000000000000000000E
:1022D00000000000000000000000000000000000FE
:1022E00000000000000000000000000000000000EE
:1022F0000000000000000000000000000F270000A8
:1023000000000000000000000000000000000000CD
:08231000F8330000000000009A
:0400000500000104F2
:00000001FF
